{"abi":[{"type":"constructor","inputs":[],"stateMutability":"nonpayable"},{"type":"function","name":"MAX_SUPPLY","inputs":[],"outputs":[{"name":"","type":"uint256","internalType":"uint256"}],"stateMutability":"view"},{"type":"function","name":"UPGRADE_INTERFACE_VERSION","inputs":[],"outputs":[{"name":"","type":"string","internalType":"string"}],"stateMutability":"view"},{"type":"function","name":"approve","inputs":[{"name":"to","type":"address","internalType":"address"},{"name":"tokenId","type":"uint256","internalType":"uint256"}],"outputs":[],"stateMutability":"nonpayable"},{"type":"function","name":"balanceOf","inputs":[{"name":"owner","type":"address","internalType":"address"}],"outputs":[{"name":"","type":"uint256","internalType":"uint256"}],"stateMutability":"view"},{"type":"function","name":"getApproved","inputs":[{"name":"tokenId","type":"uint256","internalType":"uint256"}],"outputs":[{"name":"","type":"address","internalType":"address"}],"stateMutability":"view"},{"type":"function","name":"getRoyaltyBps","inputs":[],"outputs":[{"name":"","type":"uint96","internalType":"uint96"}],"stateMutability":"view"},{"type":"function","name":"getRoyaltyReceiver","inputs":[],"outputs":[{"name":"","type":"address","internalType":"address"}],"stateMutability":"view"},{"type":"function","name":"initialize","inputs":[{"name":"name","type":"string","internalType":"string"},{"name":"symbol","type":"string","internalType":"string"},{"name":"royaltyReceiver_","type":"address","internalType":"address"},{"name":"royaltyBps_","type":"uint96","internalType":"uint96"}],"outputs":[],"stateMutability":"nonpayable"},{"type":"function","name":"isApprovedForAll","inputs":[{"name":"owner","type":"address","internalType":"address"},{"name":"operator","type":"address","internalType":"address"}],"outputs":[{"name":"","type":"bool","internalType":"bool"}],"stateMutability":"view"},{"type":"function","name":"mint","inputs":[{"name":"uri","type":"string","internalType":"string"}],"outputs":[{"name":"","type":"uint256","internalType":"uint256"}],"stateMutability":"payable"},{"type":"function","name":"mintPrice","inputs":[],"outputs":[{"name":"","type":"uint256","internalType":"uint256"}],"stateMutability":"view"},{"type":"function","name":"name","inputs":[],"outputs":[{"name":"","type":"string","internalType":"string"}],"stateMutability":"view"},{"type":"function","name":"owner","inputs":[],"outputs":[{"name":"","type":"address","internalType":"address"}],"stateMutability":"view"},{"type":"function","name":"ownerOf","inputs":[{"name":"tokenId","type":"uint256","internalType":"uint256"}],"outputs":[{"name":"","type":"address","internalType":"address"}],"stateMutability":"view"},{"type":"function","name":"proxiableUUID","inputs":[],"outputs":[{"name":"","type":"bytes32","internalType":"bytes32"}],"stateMutability":"view"},{"type":"function","name":"renounceOwnership","inputs":[],"outputs":[],"stateMutability":"nonpayable"},{"type":"function","name":"royaltyInfo","inputs":[{"name":"","type":"uint256","internalType":"uint256"},{"name":"salePrice","type":"uint256","internalType":"uint256"}],"outputs":[{"name":"receiver","type":"address","internalType":"address"},{"name":"royaltyAmount","type":"uint256","internalType":"uint256"}],"stateMutability":"view"},{"type":"function","name":"safeTransferFrom","inputs":[{"name":"from","type":"address","internalType":"address"},{"name":"to","type":"address","internalType":"address"},{"name":"tokenId","type":"uint256","internalType":"uint256"}],"outputs":[],"stateMutability":"nonpayable"},{"type":"function","name":"safeTransferFrom","inputs":[{"name":"from","type":"address","internalType":"address"},{"name":"to","type":"address","internalType":"address"},{"name":"tokenId","type":"uint256","internalType":"uint256"},{"name":"data","type":"bytes","internalType":"bytes"}],"outputs":[],"stateMutability":"nonpayable"},{"type":"function","name":"setApprovalForAll","inputs":[{"name":"operator","type":"address","internalType":"address"},{"name":"approved","type":"bool","internalType":"bool"}],"outputs":[],"stateMutability":"nonpayable"},{"type":"function","name":"setRoyaltyInfo","inputs":[{"name":"receiver","type":"address","internalType":"address"},{"name":"bps","type":"uint96","internalType":"uint96"}],"outputs":[],"stateMutability":"nonpayable"},{"type":"function","name":"supportsInterface","inputs":[{"name":"interfaceId","type":"bytes4","internalType":"bytes4"}],"outputs":[{"name":"","type":"bool","internalType":"bool"}],"stateMutability":"view"},{"type":"function","name":"symbol","inputs":[],"outputs":[{"name":"","type":"string","internalType":"string"}],"stateMutability":"view"},{"type":"function","name":"tokenURI","inputs":[{"name":"tokenId","type":"uint256","internalType":"uint256"}],"outputs":[{"name":"","type":"string","internalType":"string"}],"stateMutability":"view"},{"type":"function","name":"totalSupply","inputs":[],"outputs":[{"name":"","type":"uint256","internalType":"uint256"}],"stateMutability":"view"},{"type":"function","name":"transferFrom","inputs":[{"name":"from","type":"address","internalType":"address"},{"name":"to","type":"address","internalType":"address"},{"name":"tokenId","type":"uint256","internalType":"uint256"}],"outputs":[],"stateMutability":"nonpayable"},{"type":"function","name":"transferOwnership","inputs":[{"name":"newOwner","type":"address","internalType":"address"}],"outputs":[],"stateMutability":"nonpayable"},{"type":"function","name":"upgradeToAndCall","inputs":[{"name":"newImplementation","type":"address","internalType":"address"},{"name":"data","type":"bytes","internalType":"bytes"}],"outputs":[],"stateMutability":"payable"},{"type":"function","name":"withdraw","inputs":[],"outputs":[],"stateMutability":"nonpayable"},{"type":"event","name":"Approval","inputs":[{"name":"owner","type":"address","indexed":true,"internalType":"address"},{"name":"approved","type":"address","indexed":true,"internalType":"address"},{"name":"tokenId","type":"uint256","indexed":true,"internalType":"uint256"}],"anonymous":false},{"type":"event","name":"ApprovalForAll","inputs":[{"name":"owner","type":"address","indexed":true,"internalType":"address"},{"name":"operator","type":"address","indexed":true,"internalType":"address"},{"name":"approved","type":"bool","indexed":false,"internalType":"bool"}],"anonymous":false},{"type":"event","name":"BatchMetadataUpdate","inputs":[{"name":"_fromTokenId","type":"uint256","indexed":false,"internalType":"uint256"},{"name":"_toTokenId","type":"uint256","indexed":false,"internalType":"uint256"}],"anonymous":false},{"type":"event","name":"Initialized","inputs":[{"name":"version","type":"uint64","indexed":false,"internalType":"uint64"}],"anonymous":false},{"type":"event","name":"MetadataUpdate","inputs":[{"name":"_tokenId","type":"uint256","indexed":false,"internalType":"uint256"}],"anonymous":false},{"type":"event","name":"NFTMinted","inputs":[{"name":"minter","type":"address","indexed":true,"internalType":"address"},{"name":"tokenId","type":"uint256","indexed":true,"internalType":"uint256"},{"name":"uri","type":"string","indexed":false,"internalType":"string"}],"anonymous":false},{"type":"event","name":"OwnershipTransferred","inputs":[{"name":"previousOwner","type":"address","indexed":true,"internalType":"address"},{"name":"newOwner","type":"address","indexed":true,"internalType":"address"}],"anonymous":false},{"type":"event","name":"RoyaltyInfoUpdated","inputs":[{"name":"receiver","type":"address","indexed":true,"internalType":"address"},{"name":"bps","type":"uint96","indexed":false,"internalType":"uint96"}],"anonymous":false},{"type":"event","name":"Transfer","inputs":[{"name":"from","type":"address","indexed":true,"internalType":"address"},{"name":"to","type":"address","indexed":true,"internalType":"address"},{"name":"tokenId","type":"uint256","indexed":true,"internalType":"uint256"}],"anonymous":false},{"type":"event","name":"Upgraded","inputs":[{"name":"implementation","type":"address","indexed":true,"internalType":"address"}],"anonymous":false},{"type":"error","name":"AddressEmptyCode","inputs":[{"name":"target","type":"address","internalType":"address"}]},{"type":"error","name":"ERC1967InvalidImplementation","inputs":[{"name":"implementation","type":"address","internalType":"address"}]},{"type":"error","name":"ERC1967NonPayable","inputs":[]},{"type":"error","name":"ERC2981InvalidDefaultRoyalty","inputs":[{"name":"numerator","type":"uint256","internalType":"uint256"},{"name":"denominator","type":"uint256","internalType":"uint256"}]},{"type":"error","name":"ERC2981InvalidDefaultRoyaltyReceiver","inputs":[{"name":"receiver","type":"address","internalType":"address"}]},{"type":"error","name":"ERC2981InvalidTokenRoyalty","inputs":[{"name":"tokenId","type":"uint256","internalType":"uint256"},{"name":"numerator","type":"uint256","internalType":"uint256"},{"name":"denominator","type":"uint256","internalType":"uint256"}]},{"type":"error","name":"ERC2981InvalidTokenRoyaltyReceiver","inputs":[{"name":"tokenId","type":"uint256","internalType":"uint256"},{"name":"receiver","type":"address","internalType":"address"}]},{"type":"error","name":"ERC721IncorrectOwner","inputs":[{"name":"sender","type":"address","internalType":"address"},{"name":"tokenId","type":"uint256","internalType":"uint256"},{"name":"owner","type":"address","internalType":"address"}]},{"type":"error","name":"ERC721InsufficientApproval","inputs":[{"name":"operator","type":"address","internalType":"address"},{"name":"tokenId","type":"uint256","internalType":"uint256"}]},{"type":"error","name":"ERC721InvalidApprover","inputs":[{"name":"approver","type":"address","internalType":"address"}]},{"type":"error","name":"ERC721InvalidOperator","inputs":[{"name":"operator","type":"address","internalType":"address"}]},{"type":"error","name":"ERC721InvalidOwner","inputs":[{"name":"owner","type":"address","internalType":"address"}]},{"type":"error","name":"ERC721InvalidReceiver","inputs":[{"name":"receiver","type":"address","internalType":"address"}]},{"type":"error","name":"ERC721InvalidSender","inputs":[{"name":"sender","type":"address","internalType":"address"}]},{"type":"error","name":"ERC721NonexistentToken","inputs":[{"name":"tokenId","type":"uint256","internalType":"uint256"}]},{"type":"error","name":"FailedCall","inputs":[]},{"type":"error","name":"InvalidInitialization","inputs":[]},{"type":"error","name":"NotInitializing","inputs":[]},{"type":"error","name":"OwnableInvalidOwner","inputs":[{"name":"owner","type":"address","internalType":"address"}]},{"type":"error","name":"OwnableUnauthorizedAccount","inputs":[{"name":"account","type":"address","internalType":"address"}]},{"type":"error","name":"UUPSUnauthorizedCallContext","inputs":[]},{"type":"error","name":"UUPSUnsupportedProxiableUUID","inputs":[{"name":"slot","type":"bytes32","internalType":"bytes32"}]}],"bytecode":{"object":"0x60a080604052346100ed5730608052662386f26fc10000600155600280546001600160a01b0316607d60a31b1790557ff0c57e16840df040f15088dc2f81fe391c3923bec73e23a9662efc9c229c6a0080549091604082901c60ff166100de57506001600160401b036002600160401b031982821601610099575b604051611ef790816100f2823960805181818161100c01526110ad0152f35b6001600160401b031990911681179091556040519081527fc7f505b2f371ae2175ee4913f4499e1f2633a7b5936321eed1cdaeb6115181d290602090a15f808061007a565b63f92ee8a960e01b8152600490fd5b5f80fdfe60806040818152600480361015610014575f80fd5b5f3560e01c92836301ffc9a7146116ec5750826302fa7c471461162157826306fdde031461154e578263081812fc14611509578263095ea7b31461142857826318160ddd1461140b57826322514cdd146113ea57826323b872dd146113d35782632a55205a1461137357826332cb6b0c146113575782633ccfd60b1461129657826342842e0e146112685782634f1ef2861461107057826352d1902d14610ff95782636352211e14610fca5782636817c76c14610fac57826370a0823114610f59578263715018a614610ef25782638da5cb5b14610ebe57826395d89b4114610db4578263a22cb46514610d1b578263a5bd523514610cf3578263ad3cb1cc14610c8b578263b7e31add146107b9578263b88d4fde14610760578263c87b56dd14610650578263d85d3d27146101d757508163e985e9c51461018e575063f2fde38b1461015f575f80fd5b3461018a57602036600319011261018a5761018861017b61178a565b610183611c32565b611bc1565b005b5f80fd5b3461018a578060031936011261018a576020906101a961178a565b6101ba6101b46117a0565b91611b89565b9060018060a01b03165f52825260ff815f20541690519015158152f35b6020918260031936011261018a5767ffffffffffffffff90823582811161018a576102059036908501611897565b5f549361271085101561061857600193845434106105de575f19958087146105cb57850194855f55845161023881611829565b5f815233156105b557865f527f80bb2b638cc20bc4d0a60d66940f3ab4a00c1d7b313497ca82fb0b4ab0079302808a528760018060a01b03885f205416801515928361057a575b61028833611b51565b868154019055825f528c52885f20336001600160601b0360a01b82541617905533907fddf252ad1be2c89b69c2b068fc378daa952ba7f163c4a11628f55a4df523b3ef5f80a461056457333b610476575b50855f527f0542a41881ee128a365a727b282c86fa859579490b9bb45aab8503648c8e79008852845f209284519283116104635750610318835461191c565b601f811161041d575b5087601f83116001146103bc579682809288995f999899946103b1575b501b9260031b1c19161790555b7ff8e1a15aba9398e019f0b49df1a4fde98ee17ae345cb5f6b5e2c27f5033e8ce7858451848152a17fd35bb95e09c04b219e35047ce7b7b300e3384264ef84a40456943dbc0fc17c148351868152806103a83394898301906117b6565b0390a351908152f35b87015193508b61033e565b601f92919219821697845f52895f20915f5b8b8b821061040957505083899a999899106103f1575b505050811b01905561034b565b8601519060f88460031b161c191690558880806103e4565b8883015185559386019391820191016103ce565b835f52885f20601f840160051c8101918a8510610459575b601f0160051c019082905b82811061044e575050610321565b5f8155018290610440565b9091508190610435565b604190634e487b7160e01b5f525260245ffd5b859694939795518981806104b2630a85bd0160e11b958683528d33908401525f60248401528a60448401526080606484015260848301906117b6565b03815f335af15f9181610524575b506104f4578989896104d0611b22565b805193846104ee578251633250574960e11b81523381860152602490fd5b84925001fd5b63ffffffff60e09995969897991b160361050e57886102d9565b8451633250574960e11b81523381850152602490fd5b9091508a81813d831161055d575b61053c8183611859565b8101031261018a57516001600160e01b03198116810361018a57908b6104c0565b503d610532565b85516339e3563760e11b81525f81860152602490fd5b5f8381525f80516020611ea28339815191526020526040902080546001600160a01b03191690556105aa82611b51565b8c815401905561027f565b8551633250574960e11b81525f81860152602490fd5b601183634e487b7160e01b5f525260245ffd5b835162461bcd60e51b81528083018890526014602482015273125b9cdd59999a58da595b9d081c185e5b595b9d60621b6044820152606490fd5b825162461bcd60e51b8152908101869052601260248201527113585e081cdd5c1c1b1e481c995858da195960721b6044820152606490fd5b3461018a576020908160031936011261018a573561066d81611c6a565b505f527f0542a41881ee128a365a727b282c86fa859579490b9bb45aab8503648c8e79008152815f2091805180935f9080546106a88161191c565b91828552600191876001821691825f146107395750506001146106f9575b5050506106f592916106d9910385611859565b5f81516106e581611829565b52519282849384528301906117b6565b0390f35b8693505f92919252825f20915f925b82841061072157505050820101816106d96106f56106c6565b8054848a018601528895508794909301928101610708565b60ff19168782015293151560051b860190930193508492506106d991506106f590506106c6565b3461018a57608036600319011261018a5761077961178a565b6107816117a0565b6044359060643567ffffffffffffffff811161018a57610188946107a791369101611897565b926107b3838383611954565b33611cc3565b3461018a57608036600319011261018a5767ffffffffffffffff90803582811161018a576107ea9036908301611897565b9160243581811161018a576108029036908401611897565b6044356001600160a01b038116919082900361018a57606435906001600160601b0382169384830361018a577ff0c57e16840df040f15088dc2f81fe391c3923bec73e23a9662efc9c229c6a009687549660ff888b1c16159683891698891580610c84575b6001809b149081610c7a575b159081610c71575b50610c615767ffffffffffffffff1981168a178b5588610c42575b508615610bff576103e86108ab9111156118dd565b6108b3611ddd565b6108bb611ddd565b8151838111610bec577f80bb2b638cc20bc4d0a60d66940f3ab4a00c1d7b313497ca82fb0b4ab007930090806108f1835461191c565b94601f95868111610b7f575b50602090868311600114610b02575f92610af7575b50505f19600383901b1c1916908a1b1790555b8351928311610463575081907f80bb2b638cc20bc4d0a60d66940f3ab4a00c1d7b313497ca82fb0b4ab00793019361095d855461191c565b828111610a88575b506020918311600114610a0b575f92610a00575b50505f19600383901b1c191690861b1790555b610994611ddd565b61099c611ddd565b6109a4611ddd565b6109ad33611bc1565b60a01b6001600160a01b031916176002556109c457005b7fc7f505b2f371ae2175ee4913f4499e1f2633a7b5936321eed1cdaeb6115181d29260209268ff000000000000000019815416905551908152a1005b015190508980610979565b90889350601f19831691855f527ff4bad0a69248f59680a4f2b3000328cec71a413447c96781cfe5996daa8c456e925f5b818110610a7057508411610a58575b505050811b01905561098c565b01515f1960f88460031b161c19169055898080610a4b565b8284015185558b969094019360209384019301610a3c565b90919250845f527ff4bad0a69248f59680a4f2b3000328cec71a413447c96781cfe5996daa8c456e8380860160051c82019260208710610aee575b9186958c929594930160051c01915b828110610ae0575050610965565b5f81558695508b9101610ad2565b92508192610ac3565b015190508d80610912565b908c9350601f19831691855f527f37c58c799b6609234b945e882912ee9ad34948a1dfaa20a97485e1a7752bbf81925f5b818110610b6757508411610b4f575b505050811b019055610925565b01515f1960f88460031b161c191690558d8080610b42565b8284015185558f969094019360209384019301610b33565b909150835f527f37c58c799b6609234b945e882912ee9ad34948a1dfaa20a97485e1a7752bbf818680850160051c82019260208610610be3575b918e91869594930160051c01915b828110610bd55750506108fd565b5f81558594508e9101610bc7565b92508192610bb9565b604182634e487b7160e01b5f525260245ffd5b8a5162461bcd60e51b8152602081840152601860248201527f496e76616c696420726f79616c747920726563656976657200000000000000006044820152606490fd5b68ffffffffffffffffff191668010000000000000001178a558b610896565b8b5163f92ee8a960e01b81528390fd5b9050158d61087b565b303b159150610873565b5088610867565b903461018a575f36600319011261018a5780519080820182811067ffffffffffffffff821117610ce0576106f59350815260058252640352e302e360dc1b6020830152519182916020835260208301906117b6565b604184634e487b7160e01b5f525260245ffd5b503461018a575f36600319011261018a5760025490516001600160a01b039091168152602090f35b903461018a578060031936011261018a57610d3461178a565b906024359182151580930361018a576001600160a01b0316928315610d9f5750610d5d33611b89565b835f52602052805f2060ff1981541660ff8416179055519081527f17307eab39ab6107e8899845ad3d59bd9653f200f220920489ca2b5937696c3160203392a3005b836024925191630b61174360e31b8352820152fd5b503461018a575f36600319011261018a578051905f90827f80bb2b638cc20bc4d0a60d66940f3ab4a00c1d7b313497ca82fb0b4ab0079301928354610df88161191c565b90818452602095600191876001821691825f14610e97575050600114610e3b575b5050506106f59291610e2c910385611859565b519282849384528301906117b6565b5f90815286935091907ff4bad0a69248f59680a4f2b3000328cec71a413447c96781cfe5996daa8c456e5b828410610e7f5750505082010181610e2c6106f5610e19565b8054848a018601528895508794909301928101610e66565b60ff19168782015293151560051b86019093019350849250610e2c91506106f59050610e19565b503461018a575f36600319011261018a575f80516020611e828339815191525490516001600160a01b039091168152602090f35b3461018a575f36600319011261018a57610f0a611c32565b5f80516020611e8283398151915280546001600160a01b031981169091555f906001600160a01b03167f8be0079c531659141344cd1fd0a4f28419497f9722a3daafe3b4186f6b6457e08280a3005b3461018a57602036600319011261018a57610f7261178a565b906001600160a01b03821615610f9657602083610f8e84611b51565b549051908152f35b6024905f8451916322718ad960e21b8352820152fd5b503461018a575f36600319011261018a576020906001549051908152f35b903461018a57602036600319011261018a57610fe860209235611c6a565b90516001600160a01b039091168152f35b903461018a575f36600319011261018a577f00000000000000000000000000000000000000000000000000000000000000006001600160a01b0316300361106357602090517f360894a13ba1a3210667c828492db98dca3e2076cc3735a920a3ca505d382bbc8152f35b5163703e46dd60e11b8152fd5b8160031936011261018a5761108361178a565b60243567ffffffffffffffff811161018a576110a29036908401611897565b926001600160a01b037f0000000000000000000000000000000000000000000000000000000000000000811630811490811561123a575b5061122a576110e6611c32565b82169181516352d1902d60e01b81526020818681875afa5f91816111f6575b5061112157505051634c9c8ce360e01b81529182015260249150fd5b7f360894a13ba1a3210667c828492db98dca3e2076cc3735a920a3ca505d382bbc9493929194908181036111e05750843b156111ca5780546001600160a01b0319168317905551907fbc7cd75a20ee27fd9adebab32041f755214dbc6bffa90cc0225b39da2e5c2d3b5f80a28351156111b35750505f8083602061018895519101845af46111ad611b22565b91611e1e565b91509150346111be57005b63b398979f60e01b8152fd5b5051634c9c8ce360e01b81529182015260249150fd5b84602491845191632a87526960e21b8352820152fd5b9091506020813d602011611222575b8161121260209383611859565b8101031261018a57519087611105565b3d9150611205565b815163703e46dd60e11b81528490fd5b9050817f360894a13ba1a3210667c828492db98dca3e2076cc3735a920a3ca505d382bbc54161415866110d9565b503461018a576101889061127b366117f4565b9192519261128884611829565b5f84526107b3838383611954565b3461018a575f36600319011261018a576112ae611c32565b47801561131b575f80516020611e82833981519152545f918291829182916001600160a01b03165af16112df611b22565b50156112e757005b6020606492519162461bcd60e51b8352820152600f60248201526e15da5d1a191c985dc819985a5b1959608a1b6044820152fd5b506020606492519162461bcd60e51b835282015260166024820152754e6f2062616c616e636520746f20776974686472617760501b6044820152fd5b503461018a575f36600319011261018a57602090516127108152f35b903461018a578060031936011261018a5760243590600254928360a01c928381029381850414901517156113c05750516001600160a01b0392909216825261271090046020820152604090f35b601190634e487b7160e01b5f525260245ffd5b3461018a576101886113e4366117f4565b91611954565b503461018a575f36600319011261018a5760209060025460a01c9051908152f35b503461018a575f36600319011261018a576020905f549051908152f35b903461018a578060031936011261018a5761144161178a565b916024359061144f82611c6a565b90331515806114f6575b806114d9575b6114c257506001600160a01b039384169382918591167f8c5be1e5ebec7d5bd14f71427d1e84f3dd0314c0f7b2291e5b200ac8c7c3b9255f80a45f9081525f80516020611ea28339815191526020522080546001600160a01b0319169091179055005b60249084519063a9fbf51f60e01b82523390820152fd5b506114e382611b89565b335f5260205260ff845f2054161561145f565b506001600160a01b038216331415611459565b903461018a57602036600319011261018a576020913561152881611c6a565b505f525f80516020611ea2833981519152825260018060a01b03815f2054169051908152f35b503461018a575f36600319011261018a578051905f90827f80bb2b638cc20bc4d0a60d66940f3ab4a00c1d7b313497ca82fb0b4ab00793009283546115928161191c565b90818452602095600191876001821691825f14610e975750506001146115c5575050506106f59291610e2c910385611859565b5f90815286935091907f37c58c799b6609234b945e882912ee9ad34948a1dfaa20a97485e1a7752bbf815b8284106116095750505082010181610e2c6106f5610e19565b8054848a0186015288955087949093019281016115f0565b903461018a578060031936011261018a5761163a61178a565b906024356001600160601b0381169283820361018a57611658611c32565b6001600160a01b03169384156116b65750916020917fae1d656a1268648b04ffa79c1416f05879338ae295aae3234d8db217356a1c629361169d6103e88411156118dd565b60a01b6001600160a01b031916851760025551908152a2005b606490602084519162461bcd60e51b8352820152601060248201526f24b73b30b634b2103932b1b2b4bb32b960811b6044820152fd5b903461018a57602036600319011261018a57359063ffffffff60e01b821680920361018a5760209163152a902d60e11b811490811561172d575b5015158152f35b632483248360e11b811491508115611747575b5083611726565b6380ac58cd60e01b811491508115611779575b8115611768575b5083611740565b6301ffc9a760e01b14905083611761565b635b5e139f60e01b8114915061175a565b600435906001600160a01b038216820361018a57565b602435906001600160a01b038216820361018a57565b91908251928382525f5b8481106117e0575050825f602080949584010152601f8019910116010190565b6020818301810151848301820152016117c0565b606090600319011261018a576001600160a01b0390600435828116810361018a5791602435908116810361018a579060443590565b6020810190811067ffffffffffffffff82111761184557604052565b634e487b7160e01b5f52604160045260245ffd5b90601f8019910116810190811067ffffffffffffffff82111761184557604052565b67ffffffffffffffff811161184557601f01601f191660200190565b81601f8201121561018a578035906118ae8261187b565b926118bc6040519485611859565b8284526020838301011161018a57815f926020809301838601378301015290565b156118e457565b60405162461bcd60e51b815260206004820152601060248201526f0a4def2c2d8e8f240e8dede40d0d2ced60831b6044820152606490fd5b90600182811c9216801561194a575b602083101461193657565b634e487b7160e01b5f52602260045260245ffd5b91607f169161192b565b6001600160a01b0382811693918415611b0a57825f52827f80bb2b638cc20bc4d0a60d66940f3ab4a00c1d7b313497ca82fb0b4ab0079302958660205260409684885f2054169633151580611a66575b506119b39088611a2a57611b51565b60018154019055825f52602052865f20816001600160601b0360a01b825416179055857fddf252ad1be2c89b69c2b068fc378daa952ba7f163c4a11628f55a4df523b3ef5f80a41692838303611a095750505050565b6064945051926364283d7b60e01b8452600484015260248301526044820152fd5b5f8581525f80516020611ea28339815191526020526040902080546001600160a01b0319169055611a5a89611b51565b80545f19019055611b51565b929350909180611abc575b15611a8057908592915f6119a4565b878688611a9d576024915190637e27328960e01b82526004820152fd5b905163177e802f60e01b81523360048201526024810191909152604490fd5b503387148015611aee575b80611a715750855f525f80516020611ea28339815191526020523385895f20541614611a71565b50611af887611b89565b335f5260205260ff885f205416611ac7565b604051633250574960e11b81525f6004820152602490fd5b3d15611b4c573d90611b338261187b565b91611b416040519384611859565b82523d5f602084013e565b606090565b6001600160a01b03165f9081527f80bb2b638cc20bc4d0a60d66940f3ab4a00c1d7b313497ca82fb0b4ab00793036020526040902090565b6001600160a01b03165f9081527f80bb2b638cc20bc4d0a60d66940f3ab4a00c1d7b313497ca82fb0b4ab00793056020526040902090565b6001600160a01b03908116908115611c1a575f80516020611e8283398151915280546001600160a01b031981168417909155167f8be0079c531659141344cd1fd0a4f28419497f9722a3daafe3b4186f6b6457e05f80a3565b604051631e4fbdf760e01b81525f6004820152602490fd5b5f80516020611e82833981519152546001600160a01b03163303611c5257565b60405163118cdaa760e01b8152336004820152602490fd5b5f8181527f80bb2b638cc20bc4d0a60d66940f3ab4a00c1d7b313497ca82fb0b4ab007930260205260409020546001600160a01b0316908115611cab575090565b60249060405190637e27328960e01b82526004820152fd5b9291803b611cd3575b5050505050565b604051630a85bd0160e11b8082526001600160a01b03958616600483015292851660248201526044810193909352608060648401529092169260209082908190611d219060848301906117b6565b03815f875af15f9181611d98575b50611d665782611d3d611b22565b8051919082611d5f57604051633250574960e11b815260048101839052602490fd5b9050602001fd5b6001600160e01b03191603611d8057505f80808080611ccc565b60249060405190633250574960e11b82526004820152fd5b9091506020813d602011611dd5575b81611db460209383611859565b8101031261018a57516001600160e01b03198116810361018a57905f611d2f565b3d9150611da7565b60ff7ff0c57e16840df040f15088dc2f81fe391c3923bec73e23a9662efc9c229c6a005460401c1615611e0c57565b604051631afcd79f60e31b8152600490fd5b90611e455750805115611e3357805190602001fd5b60405163d6bda27560e01b8152600490fd5b81511580611e78575b611e56575090565b604051639996b31560e01b81526001600160a01b039091166004820152602490fd5b50803b15611e4e56fe9016d09d72d40fdae2fd8ceac6b6234c7706214fd39c1cd1e609a0528c19930080bb2b638cc20bc4d0a60d66940f3ab4a00c1d7b313497ca82fb0b4ab0079304a26469706673582212203281699427586081454c7c8c1aba0f3c72595f236afe539fe7a14a892d256d1c64736f6c63430008180033","linkReferences":{}},"methodIdentifiers":{"MAX_SUPPLY()":"32cb6b0c","UPGRADE_INTERFACE_VERSION()":"ad3cb1cc","approve(address,uint256)":"095ea7b3","balanceOf(address)":"70a08231","getApproved(uint256)":"081812fc","getRoyaltyBps()":"22514cdd","getRoyaltyReceiver()":"a5bd5235","initialize(string,string,address,uint96)":"b7e31add","isApprovedForAll(address,address)":"e985e9c5","mint(string)":"d85d3d27","mintPrice()":"6817c76c","name()":"06fdde03","owner()":"8da5cb5b","ownerOf(uint256)":"6352211e","proxiableUUID()":"52d1902d","renounceOwnership()":"715018a6","royaltyInfo(uint256,uint256)":"2a55205a","safeTransferFrom(address,address,uint256)":"42842e0e","safeTransferFrom(address,address,uint256,bytes)":"b88d4fde","setApprovalForAll(address,bool)":"a22cb465","setRoyaltyInfo(address,uint96)":"02fa7c47","supportsInterface(bytes4)":"01ffc9a7","symbol()":"95d89b41","tokenURI(uint256)":"c87b56dd","totalSupply()":"18160ddd","transferFrom(address,address,uint256)":"23b872dd","transferOwnership(address)":"f2fde38b","upgradeToAndCall(address,bytes)":"4f1ef286","withdraw()":"3ccfd60b"},"storageLayout":{"storage":[{"astId":51904,"contract":"src/nft/NFTCollectionV1.sol:NFTCollectionV1","label":"_tokenIdCounter","offset":0,"slot":"0","type":"t_uint256"},{"astId":51910,"contract":"src/nft/NFTCollectionV1.sol:NFTCollectionV1","label":"mintPrice","offset":0,"slot":"1","type":"t_uint256"},{"astId":51912,"contract":"src/nft/NFTCollectionV1.sol:NFTCollectionV1","label":"_royaltyReceiver","offset":0,"slot":"2","type":"t_address"},{"astId":51915,"contract":"src/nft/NFTCollectionV1.sol:NFTCollectionV1","label":"_royaltyBps","offset":20,"slot":"2","type":"t_uint96"}],"types":{"t_address":{"encoding":"inplace","label":"address","numberOfBytes":"20"},"t_uint256":{"encoding":"inplace","label":"uint256","numberOfBytes":"32"},"t_uint96":{"encoding":"inplace","label":"uint96","numberOfBytes":"12"}}},"id":72}