{"abi":[{"type":"constructor","inputs":[],"stateMutability":"nonpayable"},{"type":"function","name":"UPGRADE_INTERFACE_VERSION","inputs":[],"outputs":[{"name":"","type":"string","internalType":"string"}],"stateMutability":"view"},{"type":"function","name":"auctionCounter","inputs":[],"outputs":[{"name":"","type":"uint256","internalType":"uint256"}],"stateMutability":"view"},{"type":"function","name":"auctions","inputs":[{"name":"","type":"uint256","internalType":"uint256"}],"outputs":[{"name":"seller","type":"address","internalType":"address"},{"name":"nftContract","type":"address","internalType":"address"},{"name":"tokenId","type":"uint256","internalType":"uint256"},{"name":"startPrice","type":"uint256","internalType":"uint256"},{"name":"highestBid","type":"uint256","internalType":"uint256"},{"name":"highestBidder","type":"address","internalType":"address"},{"name":"endTime","type":"uint256","internalType":"uint256"},{"name":"active","type":"bool","internalType":"bool"}],"stateMutability":"view"},{"type":"function","name":"buyNft","inputs":[{"name":"listingId","type":"uint256","internalType":"uint256"}],"outputs":[],"stateMutability":"payable"},{"type":"function","name":"createAuction","inputs":[{"name":"nftContract","type":"address","internalType":"address"},{"name":"tokenId","type":"uint256","internalType":"uint256"},{"name":"startPrice","type":"uint256","internalType":"uint256"},{"name":"durationHours","type":"uint256","internalType":"uint256"}],"outputs":[{"name":"","type":"uint256","internalType":"uint256"}],"stateMutability":"nonpayable"},{"type":"function","name":"delistNft","inputs":[{"name":"listingId","type":"uint256","internalType":"uint256"}],"outputs":[],"stateMutability":"nonpayable"},{"type":"function","name":"endAuction","inputs":[{"name":"auctionId","type":"uint256","internalType":"uint256"}],"outputs":[],"stateMutability":"nonpayable"},{"type":"function","name":"feeRecipient","inputs":[],"outputs":[{"name":"","type":"address","internalType":"address"}],"stateMutability":"view"},{"type":"function","name":"getAuction","inputs":[{"name":"auctionId","type":"uint256","internalType":"uint256"}],"outputs":[{"name":"seller","type":"address","internalType":"address"},{"name":"nftContract","type":"address","internalType":"address"},{"name":"tokenId","type":"uint256","internalType":"uint256"},{"name":"startPrice","type":"uint256","internalType":"uint256"},{"name":"highestBid","type":"uint256","internalType":"uint256"},{"name":"highestBidder","type":"address","internalType":"address"},{"name":"endTime","type":"uint256","internalType":"uint256"},{"name":"active","type":"bool","internalType":"bool"}],"stateMutability":"view"},{"type":"function","name":"getHighestBidUsdValue","inputs":[{"name":"auctionId","type":"uint256","internalType":"uint256"}],"outputs":[{"name":"","type":"uint256","internalType":"uint256"}],"stateMutability":"view"},{"type":"function","name":"getListing","inputs":[{"name":"listingId","type":"uint256","internalType":"uint256"}],"outputs":[{"name":"seller","type":"address","internalType":"address"},{"name":"nftContract","type":"address","internalType":"address"},{"name":"tokenId","type":"uint256","internalType":"uint256"},{"name":"price","type":"uint256","internalType":"uint256"},{"name":"active","type":"bool","internalType":"bool"}],"stateMutability":"view"},{"type":"function","name":"initialize","inputs":[{"name":"_feeRecipient","type":"address","internalType":"address"},{"name":"_priceOracle","type":"address","internalType":"address"}],"outputs":[],"stateMutability":"nonpayable"},{"type":"function","name":"listNft","inputs":[{"name":"nftContract","type":"address","internalType":"address"},{"name":"tokenId","type":"uint256","internalType":"uint256"},{"name":"price","type":"uint256","internalType":"uint256"}],"outputs":[{"name":"","type":"uint256","internalType":"uint256"}],"stateMutability":"nonpayable"},{"type":"function","name":"listingCounter","inputs":[],"outputs":[{"name":"","type":"uint256","internalType":"uint256"}],"stateMutability":"view"},{"type":"function","name":"listings","inputs":[{"name":"","type":"uint256","internalType":"uint256"}],"outputs":[{"name":"seller","type":"address","internalType":"address"},{"name":"nftContract","type":"address","internalType":"address"},{"name":"tokenId","type":"uint256","internalType":"uint256"},{"name":"price","type":"uint256","internalType":"uint256"},{"name":"active","type":"bool","internalType":"bool"}],"stateMutability":"view"},{"type":"function","name":"owner","inputs":[],"outputs":[{"name":"","type":"address","internalType":"address"}],"stateMutability":"view"},{"type":"function","name":"pendingReturns","inputs":[{"name":"","type":"uint256","internalType":"uint256"},{"name":"","type":"address","internalType":"address"}],"outputs":[{"name":"","type":"uint256","internalType":"uint256"}],"stateMutability":"view"},{"type":"function","name":"placeBid","inputs":[{"name":"auctionId","type":"uint256","internalType":"uint256"}],"outputs":[],"stateMutability":"payable"},{"type":"function","name":"platformFee","inputs":[],"outputs":[{"name":"","type":"uint256","internalType":"uint256"}],"stateMutability":"view"},{"type":"function","name":"priceOracle","inputs":[],"outputs":[{"name":"","type":"address","internalType":"address"}],"stateMutability":"view"},{"type":"function","name":"proxiableUUID","inputs":[],"outputs":[{"name":"","type":"bytes32","internalType":"bytes32"}],"stateMutability":"view"},{"type":"function","name":"renounceOwnership","inputs":[],"outputs":[],"stateMutability":"nonpayable"},{"type":"function","name":"setPlatformFee","inputs":[{"name":"newFee","type":"uint256","internalType":"uint256"}],"outputs":[],"stateMutability":"nonpayable"},{"type":"function","name":"transferOwnership","inputs":[{"name":"newOwner","type":"address","internalType":"address"}],"outputs":[],"stateMutability":"nonpayable"},{"type":"function","name":"updateFeeRecipient","inputs":[{"name":"newRecipient","type":"address","internalType":"address"}],"outputs":[],"stateMutability":"nonpayable"},{"type":"function","name":"updatePrice","inputs":[{"name":"listingId","type":"uint256","internalType":"uint256"},{"name":"newPrice","type":"uint256","internalType":"uint256"}],"outputs":[],"stateMutability":"nonpayable"},{"type":"function","name":"updatePriceOracle","inputs":[{"name":"newOracle","type":"address","internalType":"address"}],"outputs":[],"stateMutability":"nonpayable"},{"type":"function","name":"upgradeToAndCall","inputs":[{"name":"newImplementation","type":"address","internalType":"address"},{"name":"data","type":"bytes","internalType":"bytes"}],"outputs":[],"stateMutability":"payable"},{"type":"function","name":"withdrawBid","inputs":[{"name":"auctionId","type":"uint256","internalType":"uint256"}],"outputs":[],"stateMutability":"nonpayable"},{"type":"event","name":"AuctionCreated","inputs":[{"name":"auctionId","type":"uint256","indexed":true,"internalType":"uint256"},{"name":"seller","type":"address","indexed":true,"internalType":"address"},{"name":"nftContract","type":"address","indexed":true,"internalType":"address"},{"name":"tokenId","type":"uint256","indexed":false,"internalType":"uint256"},{"name":"startPrice","type":"uint256","indexed":false,"internalType":"uint256"},{"name":"endTime","type":"uint256","indexed":false,"internalType":"uint256"}],"anonymous":false},{"type":"event","name":"AuctionEnded","inputs":[{"name":"auctionId","type":"uint256","indexed":true,"internalType":"uint256"},{"name":"winner","type":"address","indexed":true,"internalType":"address"},{"name":"finalPrice","type":"uint256","indexed":false,"internalType":"uint256"}],"anonymous":false},{"type":"event","name":"BidPlaced","inputs":[{"name":"auctionId","type":"uint256","indexed":true,"internalType":"uint256"},{"name":"bidder","type":"address","indexed":true,"internalType":"address"},{"name":"amount","type":"uint256","indexed":false,"internalType":"uint256"},{"name":"usdValue","type":"uint256","indexed":false,"internalType":"uint256"}],"anonymous":false},{"type":"event","name":"BidWithdrawn","inputs":[{"name":"auctionId","type":"uint256","indexed":true,"internalType":"uint256"},{"name":"bidder","type":"address","indexed":true,"internalType":"address"},{"name":"amount","type":"uint256","indexed":false,"internalType":"uint256"}],"anonymous":false},{"type":"event","name":"FeeRecipientUpdated","inputs":[{"name":"oldRecipient","type":"address","indexed":true,"internalType":"address"},{"name":"newRecipient","type":"address","indexed":true,"internalType":"address"}],"anonymous":false},{"type":"event","name":"Initialized","inputs":[{"name":"version","type":"uint64","indexed":false,"internalType":"uint64"}],"anonymous":false},{"type":"event","name":"NFTDelisted","inputs":[{"name":"listingId","type":"uint256","indexed":true,"internalType":"uint256"}],"anonymous":false},{"type":"event","name":"NFTListed","inputs":[{"name":"listingId","type":"uint256","indexed":true,"internalType":"uint256"},{"name":"seller","type":"address","indexed":true,"internalType":"address"},{"name":"nftContract","type":"address","indexed":true,"internalType":"address"},{"name":"tokenId","type":"uint256","indexed":false,"internalType":"uint256"},{"name":"price","type":"uint256","indexed":false,"internalType":"uint256"}],"anonymous":false},{"type":"event","name":"NFTSold","inputs":[{"name":"listingId","type":"uint256","indexed":true,"internalType":"uint256"},{"name":"buyer","type":"address","indexed":true,"internalType":"address"},{"name":"seller","type":"address","indexed":true,"internalType":"address"},{"name":"price","type":"uint256","indexed":false,"internalType":"uint256"}],"anonymous":false},{"type":"event","name":"OwnershipTransferred","inputs":[{"name":"previousOwner","type":"address","indexed":true,"internalType":"address"},{"name":"newOwner","type":"address","indexed":true,"internalType":"address"}],"anonymous":false},{"type":"event","name":"PlatformFeeUpdated","inputs":[{"name":"setter","type":"address","indexed":true,"internalType":"address"},{"name":"oldFee","type":"uint256","indexed":false,"internalType":"uint256"},{"name":"newFee","type":"uint256","indexed":false,"internalType":"uint256"}],"anonymous":false},{"type":"event","name":"PriceOracleUpdated","inputs":[{"name":"oldOracle","type":"address","indexed":true,"internalType":"address"},{"name":"newOracle","type":"address","indexed":true,"internalType":"address"}],"anonymous":false},{"type":"event","name":"PriceUpdated","inputs":[{"name":"listingId","type":"uint256","indexed":true,"internalType":"uint256"},{"name":"newPrice","type":"uint256","indexed":false,"internalType":"uint256"}],"anonymous":false},{"type":"event","name":"Upgraded","inputs":[{"name":"implementation","type":"address","indexed":true,"internalType":"address"}],"anonymous":false},{"type":"error","name":"AddressEmptyCode","inputs":[{"name":"target","type":"address","internalType":"address"}]},{"type":"error","name":"ERC1967InvalidImplementation","inputs":[{"name":"implementation","type":"address","internalType":"address"}]},{"type":"error","name":"ERC1967NonPayable","inputs":[]},{"type":"error","name":"FailedCall","inputs":[]},{"type":"error","name":"InvalidInitialization","inputs":[]},{"type":"error","name":"NotInitializing","inputs":[]},{"type":"error","name":"OwnableInvalidOwner","inputs":[{"name":"owner","type":"address","internalType":"address"}]},{"type":"error","name":"OwnableUnauthorizedAccount","inputs":[{"name":"account","type":"address","internalType":"address"}]},{"type":"error","name":"ReentrancyGuardReentrantCall","inputs":[]},{"type":"error","name":"UUPSUnauthorizedCallContext","inputs":[]},{"type":"error","name":"UUPSUnsupportedProxiableUUID","inputs":[{"name":"slot","type":"bytes32","internalType":"bytes32"}]}],"bytecode":{"object":"0x60a080604052346100d1573060805260fa6006557ff0c57e16840df040f15088dc2f81fe391c3923bec73e23a9662efc9c229c6a009081549060ff8260401c166100c257506001600160401b036002600160401b03198282160161007d575b60405161237790816100d682396080518181816110d201526111b10152f35b6001600160401b031990911681179091556040519081527fc7f505b2f371ae2175ee4913f4499e1f2633a7b5936321eed1cdaeb6115181d290602090a15f808061005e565b63f92ee8a960e01b8152600490fd5b5f80fdfe604060808152600480361015610013575f80fd5b5f915f3560e01c9182630eaaf4c814611a5b578263107a274a146119b757826312e8e2c314611919578263243adbdd1461169357826326232a2e146116745782632630c12f1461164b57826339d1fc82146115e057826346904840146115b7578263485cc955146113e85782634e791483146113745782634f1ef2861461113657826352d1902d146110bd578263571a26a01461105757826361beb1d714610cd45782636c2c9c7d14610cb55782636ffaf53114610c1b578263715018a614610bb257826378bd793514610b1557826382367b2d14610a935782638da5cb5b14610a5e5782638ddac1ef14610a1e5782639979ef4514610865578263a7e7664414610846578263ad3cb1cc146107a6578263b9a2de3a1461052a578263c922b17c146102b0578263de74e57b1461023f578263f160d3691461018e57505063f2fde38b1461015f575f80fd5b3461018b57602036600319011261018b5761018861017b611b63565b6101836121a6565b612013565b80f35b80fd5b9091503461023b57602036600319011261023b576101aa611b63565b6007546001600160a01b038082169391926101c6338614611ca8565b169384156102065750506001600160a01b03191682176007557faaebcf1bfa00580e41d966056b48521fa9f202645c86d4ddf28113e617c1b1d38380a380f35b906020606492519162461bcd60e51b8352820152600f60248201526e496e76616c6964206164647265737360881b6044820152fd5b8280fd5b90833461018b57602036600319011261018b57823581526020818152908290208054600182015460028301546003840154939096015494516001600160a01b0392831681529116928101929092526040820193909352606081019290925260ff161515608082015260a090f35b0390f35b91503461023b57606036600319011261023b576102cb611b63565b91602435604435936102de851515611f86565b6001600160a01b03908116926102f5841515611e74565b84516331a9108f60e11b8152818101849052602097908881602481895afa80156104b15782906104f4575b61032e915084163314611ecb565b855163020604bf60e21b81528281018590528881602481895afa9081156104b15782916104bb575b50831630148015610437575b906103716103fe949392611f1f565b878961037e600154611f6b565b928360015589519561038f87611b8f565b338752808b848901938c855280828b01968d885260608c0198895260808c019960018b5282525220975116906001600160601b0360a01b9182895416178855600188019251169082541617905551600285015551600384015551151591019060ff801983541691151516179055565b60015493835191825285820152837fb0fe4922ac99799c17a4130d5c045ba2ecdf6e15b75b9ea84aaf0dc28724a42b843393a451908152f35b50855163e985e9c560e01b8152338382019081523060208201528990829081906040010381895afa9081156104b1578291610371916103fe96959491610484575b50919293945050610362565b6104a491508b3d8d116104aa575b61049c8183611bf0565b810190611f07565b5f610478565b503d610492565b87513d84823e3d90fd5b90508881813d83116104ed575b6104d28183611bf0565b810103126104e9576104e390611eb7565b5f610356565b5080fd5b503d6104c8565b508881813d8311610523575b61050a8183611bf0565b810103126104e95761051e61032e91611eb7565b610320565b503d610500565b91503461023b57602090816003193601126107295782359161054a612084565b828552600281528185209160078301805461056760ff8216611fd2565b6006850154421061076f5760ff191690556001830180546001600160a01b0390811688528684528288206002860180548a52908552838920899055600586018054831698929690938a938a1561073b57908183928a97969594019b8c54916127106105d460065485611d29565b049b8c9454169554916105fd6105f86105ee86868b6120b3565b9788929197611d50565b611d50565b968a875416813b15610737578c51632142170760e11b81526001600160a01b0391821694810194855292166020840152604083019390935291879183919082908490829060600103925af1801561072d5761070c575b50937fd2aa34a4fdbbc6dff6a3e56f46e0f3ae2a31d7785ff3487aa5c95c642acea501996106ad8280808080998d829a8a846106c29f819d151580610701575b6106e1575b50505054165af16106a7611c79565b50611da9565b87600754165af16106bc611c79565b50611df5565b541694549051908152a35b60015f805160206123228339815191525580f35b81806106f99481935af16106f3611c79565b50611d5d565b5f8481610698565b508481161515610693565b9461071b819594929396611bbf565b61072957919293905f610653565b8380fd5b89513d88823e3d90fd5b8980fd5b505050509550507fd2aa34a4fdbbc6dff6a3e56f46e0f3ae2a31d7785ff3487aa5c95c642acea501925051848152a36106cd565b825162461bcd60e51b81528088018590526011602482015270105d58dd1a5bdb881b9bdd08195b991959607a1b6044820152606490fd5b9091503461023b578260031936011261023b578151908282019082821067ffffffffffffffff8311176108335750825260058152602090640352e302e360dc1b6020820152825193849260208452825192836020860152825b84811061081d57505050828201840152601f01601f19168101030190f35b81810183015188820188015287955082016107ff565b604190634e487b7160e01b5f525260245ffd5b8382346104e957816003193601126104e9576020906003549051908152f35b836020833660031901821361023b57833590818452600283528084209461089260ff600788015416611fd2565b60068601544210156109ed5785546001600160a01b039190821633146109b65786810180549091816109835760038901545b3410610952575060057f51db8e23b3f4479b162fd48823b8402895442b8f6cfd94f66239391881ec7b6f9596979801928354168061092c575b5050349055336001600160601b0360a01b82541617905561091d346121de565b8151943486528501523393a380f35b86895260058852848920905f528752610949845f20918254611f79565b905587806108fd565b845162461bcd60e51b8152908101879052600b60248201526a42696420746f6f206c6f7760a81b6044820152606490fd5b600582028281046005036109a357606461099e910483611f79565b6108c4565b634e487b7160e01b895260118252602489fd5b825162461bcd60e51b8152908101859052601160248201527014d95b1b195c8818d85b9b9bdd08189a59607a1b6044820152606490fd5b83606492519162461bcd60e51b8352820152600d60248201526c105d58dd1a5bdb88195b991959609a1b6044820152fd5b9091503461023b578160031936011261023b5781602093610a3d611b79565b9235815260058552209060018060a01b03165f528252805f20549051908152f35b8382346104e957816003193601126104e9575f805160206123028339815191525490516001600160a01b039091168152602090f35b91503461023b578060031936011261023b57602060037f945c1c4e99aa89f648fbfe3df471b916f719e16d960fcec0737d4d56bd69683892843594602435928391610adf831515611f86565b878952888652610af760ff858b209283015416611ce8565b610b0b60018060a01b038254163314611e37565b015551908152a280f35b833461018b57602036600319011261018b5760e0836102ac92843581526002602052208451610b4381611bd3565b60018060a01b0380835416958683528160018501541697886020850152600285015490818186015260038601549283606087015286015493846080870152600587015416948560a082015260ff60076006890154988960c0850152015416151597889101525198899889611c2e565b833461018b578060031936011261018b57610bcb6121a6565b5f8051602061230283398151915280546001600160a01b031981169091555f906001600160a01b03167f8be0079c531659141344cd1fd0a4f28419497f9722a3daafe3b4186f6b6457e08280a380f35b9091503461023b57602036600319011261023b578082602094610cae93358152600286522060e060ff6007865193610c5285611bd3565b80546001600160a01b039081168652600182015481168a870152600282015489870152600382015460608701529581015460808601819052600582015490961660a0860152600681015460c086015201541615159101526121de565b9051908152f35b8382346104e957816003193601126104e9576020906001549051908152f35b91503461023b57608036600319011261023b57610cef611b63565b6064359360249182359160443591821561100a5760018810610fc8576001600160a01b0390811694610d22861515611e74565b86516331a9108f60e11b8152888101869052602099908a8184818b5afa8015610f4f578590610f92575b610d5a915084163314611ecb565b875163020604bf60e21b81528981018790528a8184818b5afa908115610f4f578591610f59575b50831630148015610eef575b610d9690611f1f565b610da1600354611f6b565b9182600355610e1091828102928184041490151715610ede57508793929190610dca9042611f79565b8a855193610dd785611bd3565b338552818501908a82528786018a8152606087018a8152608088019189835260a08901958a875260c08a0197885260e08a019860018a528b5260029052838b8b20995116946001600160601b0360a01b95868b5416178a558460018b0191511686825416179055516002890155516003880155518d87015560058601925116908254161790555160068301555115159060070190610e80919060ff801983541691151516179055565b60035496858252885281812084825288528682822055868152600288522060060154908451928352868301528382015283339160607f06b9e486c68303eb64052e0493f906f3d93a1b7149b6b8dcff221aebd16c351391a451908152f35b634e487b7160e01b855260118a5284fd5b50875163e985e9c560e01b8152338a82019081523060208201528b908290819060400103818b5afa908115610f4f5790610d96918691610f32575b509050610d8d565b610f4991508c8d3d106104aa5761049c8183611bf0565b5f610f2a565b89513d87823e3d90fd5b90508a81813d8311610f8b575b610f708183611bf0565b81010312610f8757610f8190611eb7565b5f610d81565b8480fd5b503d610f66565b508a81813d8311610fc1575b610fa88183611bf0565b81010312610f8757610fbc610d5a91611eb7565b610d4c565b503d610f9e565b855162461bcd60e51b81526020818901819052818701527f4475726174696f6e206d757374206265206174206c65617374203120686f75726044820152606490fd5b855162461bcd60e51b81526020818901526022818701527f5374617274207072696365206d7573742062652067726561746572207468616e604482015261020360f41b6064820152608490fd5b833461018b57602036600319011261018b57826102ac91833581526002602052209260018060a01b039384815416938560018301541695600283015491600384015490840154916005850154169260ff6007600687015496015416955198899889611c2e565b90833461018b578060031936011261018b57507f00000000000000000000000000000000000000000000000000000000000000006001600160a01b0316300361112957602090517f360894a13ba1a3210667c828492db98dca3e2076cc3735a920a3ca505d382bbc8152f35b5163703e46dd60e11b8152fd5b91508060031936011261023b5761114b611b63565b90602493843567ffffffffffffffff81116104e957366023820112156104e957808501359361117985611c12565b61118585519182611bf0565b85815260209586820193368a838301011161132b578186928b8a93018737830101526001600160a01b037f00000000000000000000000000000000000000000000000000000000000000008116308114908115611346575b50611336576111ea6121a6565b85516352d1902d60e01b81529083169680828a818b5afa9182918793611302575b50506112275750505050505191634c9c8ce360e01b8352820152fd5b86899689927f360894a13ba1a3210667c828492db98dca3e2076cc3735a920a3ca505d382bbc908181036112ed5750853b156112d85780546001600160a01b0319168317905551869392917fbc7cd75a20ee27fd9adebab32041f755214dbc6bffa90cc0225b39da2e5c2d3b8580a28251156112bc5750506112b89382915190845af46112b2611c79565b9161229e565b5080f35b935093505050346112cc57505080f35b63b398979f60e01b8152fd5b5051634c9c8ce360e01b815291820152859150fd5b848a91845191632a87526960e21b8352820152fd5b9080929350813d831161132f575b61131a8183611bf0565b8101031261132b5751905f8061120b565b8580fd5b503d611310565b855163703e46dd60e11b81528890fd5b9050817f360894a13ba1a3210667c828492db98dca3e2076cc3735a920a3ca505d382bbc541614155f6111dd565b9091503461023b57602036600319011261023b57803591828452836020528320908101906113bb8254916113aa60ff8416611ce8565b546001600160a01b03163314611e37565b60ff191690557fc0c55a6edead4433d18cb1e287a0a20a2fa003a6f483bc9823d2e504d70d1c678280a280f35b9091503461023b578160031936011261023b57611403611b63565b9061140c611b79565b907ff0c57e16840df040f15088dc2f81fe391c3923bec73e23a9662efc9c229c6a009283549260ff84871c16159367ffffffffffffffff8116801590816115af575b60011490816115a5575b15908161159c575b5061158c5767ffffffffffffffff19811660011786558461156d575b506001600160a01b03918216928315611532575061149861225d565b6114a061225d565b6114a933612013565b6114b161225d565b6114b961225d565b60015f80516020612322833981519152556001600160601b0360a01b92836007541617600755169060085416176008556114f1578280f35b805468ff00000000000000001916905551600181527fc7f505b2f371ae2175ee4913f4499e1f2633a7b5936321eed1cdaeb6115181d290602090a15f808280f35b606490602088519162461bcd60e51b83528201526015602482015274125b9d985b1a5908199959481c9958da5c1a595b9d605a1b6044820152fd5b68ffffffffffffffffff1916680100000000000000011785555f61147c565b865163f92ee8a960e01b81528490fd5b9050155f611460565b303b159150611458565b86915061144e565b8382346104e957816003193601126104e95760075490516001600160a01b039091168152602090f35b833461018b57602036600319011261018b576115fa611b63565b6116026121a6565b600880546001600160a01b039283166001600160a01b0319821681179092559091167f56b5f80d8cac1479698aa7d01605fd6111e90b15fc4d2b377417f46034876cbd8380a380f35b8382346104e957816003193601126104e95760085490516001600160a01b039091168152602090f35b8382346104e957816003193601126104e9576020906006549051908152f35b9150602080600319360112611898578235906116ad612084565b815f525f8152825f20848101908154956116c960ff8816611ce8565b60038201968754908134106118df5783546001600160a01b03959086169133831461189c5760ff1916905561271061170360065484611d29565b0480928660018701541660028701549361172e6105f86117248588866120b3565b9687929196611d50565b94823b15611898578c51632142170760e11b81526001600160a01b03909216828901908152336020820152604081019190915290915f9183919082908490829060600103925af1801561188e5761186b575b508b6117c1946117b28280808080998e8e8b84809d9c819d151580610701576106e15750505054165af16106a7611c79565b88600754165af16106bc611c79565b878754803411611813575b505050907f8562eb94748e30bb0071e932744ce902b460c683474fcb3bfd567ffa16b1afb292915416945493519384523393a460015f805160206123228339815191525580f35b8180611820819334611d50565b335af161182b611c79565b50156118385787816117cc565b855162461bcd60e51b8152908101849052600d60248201526c1499599d5b990819985a5b1959609a1b6044820152606490fd5b86919c50916117c19461187e8994611bbf565b6117b25f9e935050945091611780565b8b513d5f823e3d90fd5b5f80fd5b895162461bcd60e51b8152808601899052601760248201527f43616e6e6f742062757920796f7572206f776e204e46540000000000000000006044820152606490fd5b875162461bcd60e51b81528084018790526014602482015273125b9cdd59999a58da595b9d081c185e5b595b9d60621b6044820152606490fd5b90346118985760203660031901126118985781359161194360018060a01b03600754163314611ca8565b6103e8831161198657507f8e93952c33ee6ff67b79915c106e3cc1bacf6c0ec664cbe66458449d0a7d9e6f906006549280600655815193845260208401523392a2005b6020606492519162461bcd60e51b8352820152600c60248201526b08ccaca40e8dede40d0d2ced60a31b6044820152fd5b90346118985760203660031901126118985781355f525f6020526102ac6080825f208351946119e586611b8f565b81546001600160a01b0390811680885260018401549091166020808901829052600285015489890181905260038601546060808c01829052959096015460ff16151596909901869052965191825295810195909552604085019590955293830193909352608082019290925290819060a0820190565b90346118985760208060031936011261189857823591611a79612084565b825f5260058252805f20335f528252805f2054938415611b2e57835f5260058352815f20335f5283525f828120555f80808088335af1611ab7611c79565b5015611afb5750907f8f8619524e8d462cead34604bd2247ede24175801481e4d0b8059ac8aa41c30191519384523393a360015f8051602061232283398151915255005b82606492519162461bcd60e51b8352820152600f60248201526e151c985b9cd9995c8819985a5b1959608a1b6044820152fd5b82606492519162461bcd60e51b835282015260116024820152702737903832b73234b733903932ba3ab93760791b6044820152fd5b600435906001600160a01b038216820361189857565b602435906001600160a01b038216820361189857565b60a0810190811067ffffffffffffffff821117611bab57604052565b634e487b7160e01b5f52604160045260245ffd5b67ffffffffffffffff8111611bab57604052565b610100810190811067ffffffffffffffff821117611bab57604052565b90601f8019910116810190811067ffffffffffffffff821117611bab57604052565b67ffffffffffffffff8111611bab57601f01601f191660200190565b6001600160a01b0391821681529181166020830152604082019290925260608101929092526080820192909252911660a082015260c081019190915290151560e08201526101000190565b3d15611ca3573d90611c8a82611c12565b91611c986040519384611bf0565b82523d5f602084013e565b606090565b15611caf57565b60405162461bcd60e51b8152602060048201526011602482015270139bdd08199959481c9958da5c1a595b9d607a1b6044820152606490fd5b15611cef57565b60405162461bcd60e51b81526020600482015260126024820152714c697374696e67206e6f742061637469766560701b6044820152606490fd5b81810292918115918404141715611d3c57565b634e487b7160e01b5f52601160045260245ffd5b91908203918211611d3c57565b15611d6457565b60405162461bcd60e51b815260206004820152601760248201527f526f79616c7479207472616e73666572206661696c65640000000000000000006044820152606490fd5b15611db057565b60405162461bcd60e51b815260206004820152601960248201527f5472616e7366657220746f2073656c6c6572206661696c6564000000000000006044820152606490fd5b15611dfc57565b60405162461bcd60e51b8152602060048201526013602482015272151c985b9cd9995c881999594819985a5b1959606a1b6044820152606490fd5b15611e3e57565b60405162461bcd60e51b815260206004820152600e60248201526d2737ba103a34329039b2b63632b960911b6044820152606490fd5b15611e7b57565b60405162461bcd60e51b8152602060048201526014602482015273125b9d985b1a59081391950818dbdb9d1c9858dd60621b6044820152606490fd5b51906001600160a01b038216820361189857565b15611ed257565b60405162461bcd60e51b815260206004820152600d60248201526c2737ba103a34329037bbb732b960991b6044820152606490fd5b90816020910312611898575180151581036118985790565b15611f2657565b60405162461bcd60e51b815260206004820152601860248201527f4d61726b6574706c616365206e6f7420617070726f76656400000000000000006044820152606490fd5b5f198114611d3c5760010190565b91908201809211611d3c57565b15611f8d57565b60405162461bcd60e51b815260206004820152601c60248201527f5072696365206d7573742062652067726561746572207468616e2030000000006044820152606490fd5b15611fd957565b60405162461bcd60e51b815260206004820152601260248201527141756374696f6e206e6f742061637469766560701b6044820152606490fd5b6001600160a01b0390811690811561206c575f8051602061230283398151915280546001600160a01b031981168417909155167f8be0079c531659141344cd1fd0a4f28419497f9722a3daafe3b4186f6b6457e05f80a3565b604051631e4fbdf760e01b81525f6004820152602490fd5b5f8051602061232283398151915260028154146120a15760029055565b604051633ee5aeb560e01b8152600490fd5b604080516301ffc9a760e01b815263152a902d60e11b6004820181905291949391926001600160a01b031690602081602481855afa90811561219c575f9161217d575b5015612172578492604491845195869485938452600484015260248301525afa908115612168575f925f9261212c575b50509091565b8193508092503d8311612161575b6121448183611bf0565b8101031261189857602061215782611eb7565b9101515f80612126565b503d61213a565b82513d5f823e3d90fd5b50505050505f905f90565b612196915060203d6020116104aa5761049c8183611bf0565b5f6120f6565b86513d5f823e3d90fd5b5f80516020612302833981519152546001600160a01b031633036121c657565b60405163118cdaa760e01b8152336004820152602490fd5b6008546001600160a01b031690811561225757602090602460405180948193630d82fdc960e11b835260048301525afa5f9181612223575b5061222057505f90565b90565b9091506020813d60201161224f575b8161223f60209383611bf0565b810103126118985751905f612216565b3d9150612232565b50505f90565b60ff7ff0c57e16840df040f15088dc2f81fe391c3923bec73e23a9662efc9c229c6a005460401c161561228c57565b604051631afcd79f60e31b8152600490fd5b906122c557508051156122b357805190602001fd5b60405163d6bda27560e01b8152600490fd5b815115806122f8575b6122d6575090565b604051639996b31560e01b81526001600160a01b039091166004820152602490fd5b50803b156122ce56fe9016d09d72d40fdae2fd8ceac6b6234c7706214fd39c1cd1e609a0528c1993009b779b17422d0df92223018b32b4d1fa46e071723d6817e2486d003becc55f00a26469706673582212203e3b25ad0b0ed2a624bc383e847c6e756d754d0963f9bb8d28bb71d3e52778b664736f6c63430008180033","linkReferences":{}},"methodIdentifiers":{"UPGRADE_INTERFACE_VERSION()":"ad3cb1cc","auctionCounter()":"a7e76644","auctions(uint256)":"571a26a0","buyNft(uint256)":"243adbdd","createAuction(address,uint256,uint256,uint256)":"61beb1d7","delistNft(uint256)":"4e791483","endAuction(uint256)":"b9a2de3a","feeRecipient()":"46904840","getAuction(uint256)":"78bd7935","getHighestBidUsdValue(uint256)":"6ffaf531","getListing(uint256)":"107a274a","initialize(address,address)":"485cc955","listNft(address,uint256,uint256)":"c922b17c","listingCounter()":"6c2c9c7d","listings(uint256)":"de74e57b","owner()":"8da5cb5b","pendingReturns(uint256,address)":"8ddac1ef","placeBid(uint256)":"9979ef45","platformFee()":"26232a2e","priceOracle()":"2630c12f","proxiableUUID()":"52d1902d","renounceOwnership()":"715018a6","setPlatformFee(uint256)":"12e8e2c3","transferOwnership(address)":"f2fde38b","updateFeeRecipient(address)":"f160d369","updatePrice(uint256,uint256)":"82367b2d","updatePriceOracle(address)":"39d1fc82","upgradeToAndCall(address,bytes)":"4f1ef286","withdrawBid(uint256)":"0eaaf4c8"},"storageLayout":{"storage":[{"astId":50691,"contract":"src/marketplace/NFTMarketplaceV1.sol:NFTMarketplaceV1","label":"listings","offset":0,"slot":"0","type":"t_mapping(t_uint256,t_struct(Listing)50668_storage)"},{"astId":50693,"contract":"src/marketplace/NFTMarketplaceV1.sol:NFTMarketplaceV1","label":"listingCounter","offset":0,"slot":"1","type":"t_uint256"},{"astId":50698,"contract":"src/marketplace/NFTMarketplaceV1.sol:NFTMarketplaceV1","label":"auctions","offset":0,"slot":"2","type":"t_mapping(t_uint256,t_struct(Auction)50686_storage)"},{"astId":50700,"contract":"src/marketplace/NFTMarketplaceV1.sol:NFTMarketplaceV1","label":"auctionCounter","offset":0,"slot":"3","type":"t_uint256"},{"astId":50706,"contract":"src/marketplace/NFTMarketplaceV1.sol:NFTMarketplaceV1","label":"nftToken2AuctionId","offset":0,"slot":"4","type":"t_mapping(t_address,t_mapping(t_uint256,t_uint256))"},{"astId":50712,"contract":"src/marketplace/NFTMarketplaceV1.sol:NFTMarketplaceV1","label":"pendingReturns","offset":0,"slot":"5","type":"t_mapping(t_uint256,t_mapping(t_address,t_uint256))"},{"astId":50715,"contract":"src/marketplace/NFTMarketplaceV1.sol:NFTMarketplaceV1","label":"platformFee","offset":0,"slot":"6","type":"t_uint256"},{"astId":50717,"contract":"src/marketplace/NFTMarketplaceV1.sol:NFTMarketplaceV1","label":"feeRecipient","offset":0,"slot":"7","type":"t_address"},{"astId":50719,"contract":"src/marketplace/NFTMarketplaceV1.sol:NFTMarketplaceV1","label":"priceOracle","offset":0,"slot":"8","type":"t_address"}],"types":{"t_address":{"encoding":"inplace","label":"address","numberOfBytes":"20"},"t_bool":{"encoding":"inplace","label":"bool","numberOfBytes":"1"},"t_mapping(t_address,t_mapping(t_uint256,t_uint256))":{"encoding":"mapping","key":"t_address","label":"mapping(address => mapping(uint256 => uint256))","numberOfBytes":"32","value":"t_mapping(t_uint256,t_uint256)"},"t_mapping(t_address,t_uint256)":{"encoding":"mapping","key":"t_address","label":"mapping(address => uint256)","numberOfBytes":"32","value":"t_uint256"},"t_mapping(t_uint256,t_mapping(t_address,t_uint256))":{"encoding":"mapping","key":"t_uint256","label":"mapping(uint256 => mapping(address => uint256))","numberOfBytes":"32","value":"t_mapping(t_address,t_uint256)"},"t_mapping(t_uint256,t_struct(Auction)50686_storage)":{"encoding":"mapping","key":"t_uint256","label":"mapping(uint256 => struct NFTMarketplaceV1.Auction)","numberOfBytes":"32","value":"t_struct(Auction)50686_storage"},"t_mapping(t_uint256,t_struct(Listing)50668_storage)":{"encoding":"mapping","key":"t_uint256","label":"mapping(uint256 => struct NFTMarketplaceV1.Listing)","numberOfBytes":"32","value":"t_struct(Listing)50668_storage"},"t_mapping(t_uint256,t_uint256)":{"encoding":"mapping","key":"t_uint256","label":"mapping(uint256 => uint256)","numberOfBytes":"32","value":"t_uint256"},"t_struct(Auction)50686_storage":{"encoding":"inplace","label":"struct NFTMarketplaceV1.Auction","numberOfBytes":"256","members":[{"astId":50671,"contract":"src/marketplace/NFTMarketplaceV1.sol:NFTMarketplaceV1","label":"seller","offset":0,"slot":"0","type":"t_address"},{"astId":50673,"contract":"src/marketplace/NFTMarketplaceV1.sol:NFTMarketplaceV1","label":"nftContract","offset":0,"slot":"1","type":"t_address"},{"astId":50675,"contract":"src/marketplace/NFTMarketplaceV1.sol:NFTMarketplaceV1","label":"tokenId","offset":0,"slot":"2","type":"t_uint256"},{"astId":50677,"contract":"src/marketplace/NFTMarketplaceV1.sol:NFTMarketplaceV1","label":"startPrice","offset":0,"slot":"3","type":"t_uint256"},{"astId":50679,"contract":"src/marketplace/NFTMarketplaceV1.sol:NFTMarketplaceV1","label":"highestBid","offset":0,"slot":"4","type":"t_uint256"},{"astId":50681,"contract":"src/marketplace/NFTMarketplaceV1.sol:NFTMarketplaceV1","label":"highestBidder","offset":0,"slot":"5","type":"t_address"},{"astId":50683,"contract":"src/marketplace/NFTMarketplaceV1.sol:NFTMarketplaceV1","label":"endTime","offset":0,"slot":"6","type":"t_uint256"},{"astId":50685,"contract":"src/marketplace/NFTMarketplaceV1.sol:NFTMarketplaceV1","label":"active","offset":0,"slot":"7","type":"t_bool"}]},"t_struct(Listing)50668_storage":{"encoding":"inplace","label":"struct NFTMarketplaceV1.Listing","numberOfBytes":"160","members":[{"astId":50659,"contract":"src/marketplace/NFTMarketplaceV1.sol:NFTMarketplaceV1","label":"seller","offset":0,"slot":"0","type":"t_address"},{"astId":50661,"contract":"src/marketplace/NFTMarketplaceV1.sol:NFTMarketplaceV1","label":"nftContract","offset":0,"slot":"1","type":"t_address"},{"astId":50663,"contract":"src/marketplace/NFTMarketplaceV1.sol:NFTMarketplaceV1","label":"tokenId","offset":0,"slot":"2","type":"t_uint256"},{"astId":50665,"contract":"src/marketplace/NFTMarketplaceV1.sol:NFTMarketplaceV1","label":"price","offset":0,"slot":"3","type":"t_uint256"},{"astId":50667,"contract":"src/marketplace/NFTMarketplaceV1.sol:NFTMarketplaceV1","label":"active","offset":0,"slot":"4","type":"t_bool"}]},"t_uint256":{"encoding":"inplace","label":"uint256","numberOfBytes":"32"}}},"id":71}