{"abi":[{"type":"constructor","inputs":[],"stateMutability":"nonpayable"},{"type":"function","name":"UPGRADE_INTERFACE_VERSION","inputs":[],"outputs":[{"name":"","type":"string","internalType":"string"}],"stateMutability":"view"},{"type":"function","name":"allowance","inputs":[{"name":"owner","type":"address","internalType":"address"},{"name":"spender","type":"address","internalType":"address"}],"outputs":[{"name":"","type":"uint256","internalType":"uint256"}],"stateMutability":"view"},{"type":"function","name":"approve","inputs":[{"name":"spender","type":"address","internalType":"address"},{"name":"value","type":"uint256","internalType":"uint256"}],"outputs":[{"name":"","type":"bool","internalType":"bool"}],"stateMutability":"nonpayable"},{"type":"function","name":"balanceOf","inputs":[{"name":"account","type":"address","internalType":"address"}],"outputs":[{"name":"","type":"uint256","internalType":"uint256"}],"stateMutability":"view"},{"type":"function","name":"burn","inputs":[{"name":"from","type":"address","internalType":"address"},{"name":"amount","type":"uint256","internalType":"uint256"}],"outputs":[],"stateMutability":"nonpayable"},{"type":"function","name":"decimals","inputs":[],"outputs":[{"name":"","type":"uint8","internalType":"uint8"}],"stateMutability":"view"},{"type":"function","name":"initialize","inputs":[{"name":"name","type":"string","internalType":"string"},{"name":"symbol","type":"string","internalType":"string"},{"name":"initialSupply","type":"uint256","internalType":"uint256"},{"name":"recipient","type":"address","internalType":"address"}],"outputs":[],"stateMutability":"nonpayable"},{"type":"function","name":"mint","inputs":[{"name":"to","type":"address","internalType":"address"},{"name":"amount","type":"uint256","internalType":"uint256"}],"outputs":[],"stateMutability":"nonpayable"},{"type":"function","name":"name","inputs":[],"outputs":[{"name":"","type":"string","internalType":"string"}],"stateMutability":"view"},{"type":"function","name":"owner","inputs":[],"outputs":[{"name":"","type":"address","internalType":"address"}],"stateMutability":"view"},{"type":"function","name":"proxiableUUID","inputs":[],"outputs":[{"name":"","type":"bytes32","internalType":"bytes32"}],"stateMutability":"view"},{"type":"function","name":"renounceOwnership","inputs":[],"outputs":[],"stateMutability":"nonpayable"},{"type":"function","name":"symbol","inputs":[],"outputs":[{"name":"","type":"string","internalType":"string"}],"stateMutability":"view"},{"type":"function","name":"totalSupply","inputs":[],"outputs":[{"name":"","type":"uint256","internalType":"uint256"}],"stateMutability":"view"},{"type":"function","name":"transfer","inputs":[{"name":"to","type":"address","internalType":"address"},{"name":"value","type":"uint256","internalType":"uint256"}],"outputs":[{"name":"","type":"bool","internalType":"bool"}],"stateMutability":"nonpayable"},{"type":"function","name":"transferFrom","inputs":[{"name":"from","type":"address","internalType":"address"},{"name":"to","type":"address","internalType":"address"},{"name":"value","type":"uint256","internalType":"uint256"}],"outputs":[{"name":"","type":"bool","internalType":"bool"}],"stateMutability":"nonpayable"},{"type":"function","name":"transferOwnership","inputs":[{"name":"newOwner","type":"address","internalType":"address"}],"outputs":[],"stateMutability":"nonpayable"},{"type":"function","name":"upgradeToAndCall","inputs":[{"name":"newImplementation","type":"address","internalType":"address"},{"name":"data","type":"bytes","internalType":"bytes"}],"outputs":[],"stateMutability":"payable"},{"type":"event","name":"Approval","inputs":[{"name":"owner","type":"address","indexed":true,"internalType":"address"},{"name":"spender","type":"address","indexed":true,"internalType":"address"},{"name":"value","type":"uint256","indexed":false,"internalType":"uint256"}],"anonymous":false},{"type":"event","name":"Initialized","inputs":[{"name":"version","type":"uint64","indexed":false,"internalType":"uint64"}],"anonymous":false},{"type":"event","name":"OwnershipTransferred","inputs":[{"name":"previousOwner","type":"address","indexed":true,"internalType":"address"},{"name":"newOwner","type":"address","indexed":true,"internalType":"address"}],"anonymous":false},{"type":"event","name":"Transfer","inputs":[{"name":"from","type":"address","indexed":true,"internalType":"address"},{"name":"to","type":"address","indexed":true,"internalType":"address"},{"name":"value","type":"uint256","indexed":false,"internalType":"uint256"}],"anonymous":false},{"type":"event","name":"Upgraded","inputs":[{"name":"implementation","type":"address","indexed":true,"internalType":"address"}],"anonymous":false},{"type":"error","name":"AddressEmptyCode","inputs":[{"name":"target","type":"address","internalType":"address"}]},{"type":"error","name":"ERC1967InvalidImplementation","inputs":[{"name":"implementation","type":"address","internalType":"address"}]},{"type":"error","name":"ERC1967NonPayable","inputs":[]},{"type":"error","name":"ERC20InsufficientAllowance","inputs":[{"name":"spender","type":"address","internalType":"address"},{"name":"allowance","type":"uint256","internalType":"uint256"},{"name":"needed","type":"uint256","internalType":"uint256"}]},{"type":"error","name":"ERC20InsufficientBalance","inputs":[{"name":"sender","type":"address","internalType":"address"},{"name":"balance","type":"uint256","internalType":"uint256"},{"name":"needed","type":"uint256","internalType":"uint256"}]},{"type":"error","name":"ERC20InvalidApprover","inputs":[{"name":"approver","type":"address","internalType":"address"}]},{"type":"error","name":"ERC20InvalidReceiver","inputs":[{"name":"receiver","type":"address","internalType":"address"}]},{"type":"error","name":"ERC20InvalidSender","inputs":[{"name":"sender","type":"address","internalType":"address"}]},{"type":"error","name":"ERC20InvalidSpender","inputs":[{"name":"spender","type":"address","internalType":"address"}]},{"type":"error","name":"FailedCall","inputs":[]},{"type":"error","name":"InvalidInitialization","inputs":[]},{"type":"error","name":"NotInitializing","inputs":[]},{"type":"error","name":"OwnableInvalidOwner","inputs":[{"name":"owner","type":"address","internalType":"address"}]},{"type":"error","name":"OwnableUnauthorizedAccount","inputs":[{"name":"account","type":"address","internalType":"address"}]},{"type":"error","name":"UUPSUnauthorizedCallContext","inputs":[]},{"type":"error","name":"UUPSUnsupportedProxiableUUID","inputs":[{"name":"slot","type":"bytes32","internalType":"bytes32"}]}],"bytecode":{"object":"0x60a080604052346100cc57306080527ff0c57e16840df040f15088dc2f81fe391c3923bec73e23a9662efc9c229c6a009081549060ff8260401c166100bd57506001600160401b036002600160401b031982821601610078575b6040516113ab90816100d1823960805181818161094301526109f60152f35b6001600160401b031990911681179091556040519081527fc7f505b2f371ae2175ee4913f4499e1f2633a7b5936321eed1cdaeb6115181d290602090a15f8080610059565b63f92ee8a960e01b8152600490fd5b5f80fdfe60806040818152600480361015610014575f80fd5b5f3560e01c92836306fdde0314610e1157508263095ea7b314610d6a57826318160ddd14610d2d57826323b872dd14610c3f578263313ce56714610c2457826340c10f1914610bf85782634f1ef286146109a757826352d1902d1461093057826370a08231146108ed578263715018a6146108865782638da5cb5b1461085257826395d89b41146107545782639dc29fac14610651578263a9059cbb14610621578263ad3cb1cc146105bd578263bd3a13f61461015957508163dd62ed3e14610115575063f2fde38b146100e6575f80fd5b346101115760203660031901126101115761010f610102610f1d565b61010a6111b9565b61105f565b005b5f80fd5b34610111578060031936011261011157602090610130610f1d565b61014161013b610f33565b91611027565b9060018060a01b03165f528252805f20549051908152f35b346101115760803660031901126101115767ffffffffffffffff9080358281116101115761018a9036908301610fd1565b90602435838111610111576101a29036908301610fd1565b606435906001600160a01b0382168203610111577ff0c57e16840df040f15088dc2f81fe391c3923bec73e23a9662efc9c229c6a009485549460ff86891c161594828716968715806105b6575b600180991490816105ac575b1590816105a3575b506105945767ffffffffffffffff1981168817895586610575575b50610227611291565b61022f611291565b8151838111610562577f52c63247e1f47db19d5ce0460030c497f067ca4cebf71ba98eeadabe20bace0390806102658354610fef565b94601f958681116104f5575b50602090868311600114610478575f9261046d575b50505f19600383901b1c191690891b1790555b835192831161045a57507f52c63247e1f47db19d5ce0460030c497f067ca4cebf71ba98eeadabe20bace04926102cf8454610fef565b8281116103f8575b50602091831160011461037557610328949392915f918361036a575b50505f19600383901b1c191690861b1790555b61030e611291565b610316611291565b61031f3361105f565b604435906111f1565b61032e57005b7fc7f505b2f371ae2175ee4913f4499e1f2633a7b5936321eed1cdaeb6115181d29260209268ff000000000000000019815416905551908152a1005b0151905089806102f3565b9392918691601f19821690845f527f46a2803e59a4de4e7a4c574b1243f25977ac4c77d5a1a4a609b5394cebb4a2aa915f5b8181106103e05750968361032898106103c8575b505050811b019055610306565b01515f1960f88460031b161c191690558980806103bb565b8289015184558a9590930192602092830192016103a7565b845f527f46a2803e59a4de4e7a4c574b1243f25977ac4c77d5a1a4a609b5394cebb4a2aa8380860160051c82019260208710610451575b0160051c019088905b8281106104465750506102d7565b5f8155018890610438565b9250819261042f565b604190634e487b7160e01b5f525260245ffd5b015190508c80610286565b908b9350601f19831691855f527f2ae08a8e29253f69ac5d979a101956ab8f8d9d7ded63fa7a83b16fc47648eab0925f5b8181106104dd575084116104c5575b505050811b019055610299565b01515f1960f88460031b161c191690558c80806104b8565b8284015185558e9690940193602093840193016104a9565b909150835f527f2ae08a8e29253f69ac5d979a101956ab8f8d9d7ded63fa7a83b16fc47648eab08680850160051c82019260208610610559575b918d91869594930160051c01915b82811061054b575050610271565b5f81558594508d910161053d565b9250819261052f565b604182634e487b7160e01b5f525260245ffd5b68ffffffffffffffffff1916680100000000000000011788558961021e565b50885163f92ee8a960e01b8152fd5b9050158b610203565b303b1591506101fb565b50866101ef565b9034610111575f3660031901126101115780519080820182811067ffffffffffffffff82111761060e5761060a9350815260058252640352e302e360dc1b60208301525191829182610ed6565b0390f35b604184634e487b7160e01b5f525260245ffd5b503461011157806003193601126101115760209061064a610640610f1d565b60243590336110d0565b5160018152f35b34610111578160031936011261011157610669610f1d565b91602435906106766111b9565b6001600160a01b03841692831561073f57835f525f805160206113368339815191529485602052825f20549184831061070b575f867fddf252ad1be2c89b69c2b068fc378daa952ba7f163c4a11628f55a4df523b3ef6020888881898e878952855203818720557f52c63247e1f47db19d5ce0460030c497f067ca4cebf71ba98eeadabe20bace0282815403905551908152a3005b835163391434e360e21b81526001600160a01b03909216908201908152602081018390526040810185905281906060010390fd5b5f6024925191634b637e8f60e11b8352820152fd5b5034610111575f3660031901126101115780515f7f52c63247e1f47db19d5ce0460030c497f067ca4cebf71ba98eeadabe20bace0480549061079582610fef565b8085529160209160019182811690811561082557506001146107cd575b61060a86886107c382890383610f49565b5191829182610ed6565b5f90815293507f46a2803e59a4de4e7a4c574b1243f25977ac4c77d5a1a4a609b5394cebb4a2aa5b838510610812575050505081016020016107c38261060a866107b2565b80548686018401529382019381016107f5565b905061060a979550869350602092506107c394915060ff191682840152151560051b8201019294866107b2565b5034610111575f366003190112610111575f805160206113568339815191525490516001600160a01b039091168152602090f35b34610111575f3660031901126101115761089e6111b9565b5f8051602061135683398151915280546001600160a01b031981169091555f906001600160a01b03167f8be0079c531659141344cd1fd0a4f28419497f9722a3daafe3b4186f6b6457e08280a3005b5034610111576020366003190112610111576020906001600160a01b03610912610f1d565b165f525f805160206113368339815191528252805f20549051908152f35b9034610111575f366003190112610111577f00000000000000000000000000000000000000000000000000000000000000006001600160a01b0316300361099a57602090517f360894a13ba1a3210667c828492db98dca3e2076cc3735a920a3ca505d382bbc8152f35b5163703e46dd60e11b8152fd5b81600319360112610111576109ba610f1d565b9160243567ffffffffffffffff81116101115736602382011215610111576109eb9036906024818601359101610f9b565b906001600160a01b037f00000000000000000000000000000000000000000000000000000000000000008116308114908115610bca575b50610bba57610a2f6111b9565b8416918151946352d1902d60e01b865260209081878781885afa5f9781610b8b575b50610a6d578351634c9c8ce360e01b8152808701869052602490fd5b919490937f360894a13ba1a3210667c828492db98dca3e2076cc3735a920a3ca505d382bbc877fc9f76b5ec45e5cdef99837d7b6d2467235c1df8933c8ca56df5c35afa2c7d4448101610b755750833b15610b5e5780546001600160a01b031916821790558351907fbc7cd75a20ee27fd9adebab32041f755214dbc6bffa90cc0225b39da2e5c2d3b5f80a2855115610b455750505f80858561010f97519101845af4913d15610b3b573d610b2d610b2482610f7f565b92519283610f49565b81525f81943d92013e6112d2565b50606092506112d2565b93509350505034610b5257005b63b398979f60e01b8152fd5b8451634c9c8ce360e01b8152808401839052602490fd5b83602491875191632a87526960e21b8352820152fd5b9097508281813d8311610bb3575b610ba38183610f49565b8101031261011157519688610a51565b503d610b99565b815163703e46dd60e11b81528490fd5b9050817f360894a13ba1a3210667c828492db98dca3e2076cc3735a920a3ca505d382bbc5416141586610a22565b5034610111573660031901126101115761010f610c13610f1d565b610c1b6111b9565b602435906111f1565b5034610111575f366003190112610111576020905160128152f35b3461011157606036600319011261011157610c58610f1d565b610c60610f33565b9060443592610c6e82611027565b335f52602052845f2054905f198210610c90575b60208661064a8787876110d0565b848210610d02576001600160a01b03831615610cec573315610cd6575091818461064a94610cc16020989795611027565b335f52885203855f2055919394819350610c82565b6024905f875191634a1406b160e11b8352820152fd5b6024905f87519163e602df0560e01b8352820152fd5b8551637dc7a0d960e11b81523391810191825260208201929092526040810185905281906060010390fd5b5034610111575f366003190112610111576020907f52c63247e1f47db19d5ce0460030c497f067ca4cebf71ba98eeadabe20bace02549051908152f35b9034610111578060031936011261011157610d83610f1d565b602435903315610dfb576001600160a01b0316908115610de55760209350610daa33611027565b825f52845280835f205582519081527f8c5be1e5ebec7d5bd14f71427d1e84f3dd0314c0f7b2291e5b200ac8c7c3b925843392a35160018152f35b8251634a1406b160e11b81525f81860152602490fd5b825163e602df0560e01b81525f81860152602490fd5b905034610111575f366003190112610111575f7f52c63247e1f47db19d5ce0460030c497f067ca4cebf71ba98eeadabe20bace03805490610e5182610fef565b808552916020916001918281169081156108255750600114610e7e5761060a86886107c382890383610f49565b5f90815293507f2ae08a8e29253f69ac5d979a101956ab8f8d9d7ded63fa7a83b16fc47648eab05b838510610ec3575050505081016020016107c38261060a866107b2565b8054868601840152938201938101610ea6565b602080825282518183018190529093925f5b828110610f0957505060409293505f838284010152601f8019910116010190565b818101860151848201604001528501610ee8565b600435906001600160a01b038216820361011157565b602435906001600160a01b038216820361011157565b90601f8019910116810190811067ffffffffffffffff821117610f6b57604052565b634e487b7160e01b5f52604160045260245ffd5b67ffffffffffffffff8111610f6b57601f01601f191660200190565b929192610fa782610f7f565b91610fb56040519384610f49565b829481845281830111610111578281602093845f960137010152565b9080601f8301121561011157816020610fec93359101610f9b565b90565b90600182811c9216801561101d575b602083101461100957565b634e487b7160e01b5f52602260045260245ffd5b91607f1691610ffe565b6001600160a01b03165f9081527f52c63247e1f47db19d5ce0460030c497f067ca4cebf71ba98eeadabe20bace016020526040902090565b6001600160a01b039081169081156110b8575f8051602061135683398151915280546001600160a01b031981168417909155167f8be0079c531659141344cd1fd0a4f28419497f9722a3daafe3b4186f6b6457e05f80a3565b604051631e4fbdf760e01b81525f6004820152602490fd5b916001600160a01b038084169283156111a1571692831561118957825f525f805160206113368339815191528060205260405f205491838310611156575091806020927fddf252ad1be2c89b69c2b068fc378daa952ba7f163c4a11628f55a4df523b3ef94865f5284520360405f2055845f5260405f20818154019055604051908152a3565b60405163391434e360e21b81526001600160a01b0391909116600482015260248101929092525060448101829052606490fd5b60405163ec442f0560e01b81525f6004820152602490fd5b604051634b637e8f60e11b81525f6004820152602490fd5b5f80516020611356833981519152546001600160a01b031633036111d957565b60405163118cdaa760e01b8152336004820152602490fd5b6001600160a01b0316908115611189577f52c63247e1f47db19d5ce0460030c497f067ca4cebf71ba98eeadabe20bace0280549082820180921161127d575f927fddf252ad1be2c89b69c2b068fc378daa952ba7f163c4a11628f55a4df523b3ef92602092558484525f80516020611336833981519152825260408420818154019055604051908152a3565b634e487b7160e01b5f52601160045260245ffd5b60ff7ff0c57e16840df040f15088dc2f81fe391c3923bec73e23a9662efc9c229c6a005460401c16156112c057565b604051631afcd79f60e31b8152600490fd5b906112f957508051156112e757805190602001fd5b60405163d6bda27560e01b8152600490fd5b8151158061132c575b61130a575090565b604051639996b31560e01b81526001600160a01b039091166004820152602490fd5b50803b1561130256fe52c63247e1f47db19d5ce0460030c497f067ca4cebf71ba98eeadabe20bace009016d09d72d40fdae2fd8ceac6b6234c7706214fd39c1cd1e609a0528c199300a2646970667358221220b60a56b5f1a0de343912c373f0deb20258c5567e73f14f43630d23fa1e0f17d964736f6c63430008180033","linkReferences":{}},"methodIdentifiers":{"UPGRADE_INTERFACE_VERSION()":"ad3cb1cc","allowance(address,address)":"dd62ed3e","approve(address,uint256)":"095ea7b3","balanceOf(address)":"70a08231","burn(address,uint256)":"9dc29fac","decimals()":"313ce567","initialize(string,string,uint256,address)":"bd3a13f6","mint(address,uint256)":"40c10f19","name()":"06fdde03","owner()":"8da5cb5b","proxiableUUID()":"52d1902d","renounceOwnership()":"715018a6","symbol()":"95d89b41","totalSupply()":"18160ddd","transfer(address,uint256)":"a9059cbb","transferFrom(address,address,uint256)":"23b872dd","transferOwnership(address)":"f2fde38b","upgradeToAndCall(address,bytes)":"4f1ef286"},"storageLayout":{"storage":[],"types":{}},"id":74}