{"abi":[{"type":"constructor","inputs":[{"name":"_ethUsdFeed","type":"address","internalType":"address"}],"stateMutability":"nonpayable"},{"type":"function","name":"ethUsdFeed","inputs":[],"outputs":[{"name":"","type":"address","internalType":"contract AggregatorV3Interface"}],"stateMutability":"view"},{"type":"function","name":"getEthUsdPrice","inputs":[],"outputs":[{"name":"","type":"uint256","internalType":"uint256"}],"stateMutability":"view"},{"type":"function","name":"getEthValueInUsd","inputs":[{"name":"ethAmount","type":"uint256","internalType":"uint256"}],"outputs":[{"name":"","type":"uint256","internalType":"uint256"}],"stateMutability":"view"},{"type":"function","name":"getPriceDecimals","inputs":[],"outputs":[{"name":"","type":"uint8","internalType":"uint8"}],"stateMutability":"view"},{"type":"function","name":"getTokenUsdPrice","inputs":[],"outputs":[{"name":"","type":"uint256","internalType":"uint256"}],"stateMutability":"view"},{"type":"function","name":"getTokenValueInUsd","inputs":[{"name":"tokenAmount","type":"uint256","internalType":"uint256"}],"outputs":[{"name":"","type":"uint256","internalType":"uint256"}],"stateMutability":"view"}],"bytecode":{"object":"0x6080346100be57601f6103cc38819003918201601f19168301916001600160401b038311848410176100c2578084926020946040528339810103126100be57516001600160a01b038116908190036100be578015610079575f80546001600160a01b0319169190911790556040516102f590816100d78239f35b60405162461bcd60e51b815260206004820152601860248201527f496e76616c6964204554482066656564206164647265737300000000000000006044820152606490fd5b5f80fd5b634e487b7160e01b5f52604160045260245ffdfe6040608081526004361015610012575f80fd5b5f3560e01c9081631b05fb921461008d5781631b30aafc146100c15781634a71bc231461008d5781635be436d91461005e5781638009b7bd14610063575063a0a8045e1461005e575f80fd5b610159565b34610089575f366003190112610089575f5490516001600160a01b039091168152602090f35b5f80fd5b34610089576020366003190112610089576020906305f5e1006100b96100b16101ef565b60043561017b565b049051908152f35b34610089575f366003190112610089575f54815163313ce56760e01b815290602090829060049082906001600160a01b03165afa90811561014f575f91610110575b5060ff6020925191168152f35b90506020813d602011610147575b8161012b602093836101a2565b8101031261008957519060ff82168203610089579060ff610103565b3d915061011e565b82513d5f823e3d90fd5b34610089575f3660031901126100895760206101736101ef565b604051908152f35b8181029291811591840414171561018e57565b634e487b7160e01b5f52601160045260245ffd5b90601f8019910116810190811067ffffffffffffffff8211176101c457604052565b634e487b7160e01b5f52604160045260245ffd5b519069ffffffffffffffffffff8216820361008957565b5f54604051633fabe5a360e21b81529060a090829060049082906001600160a01b03165afa9081156102b4575f91610267575b505f81131561022e5790565b60405162461bcd60e51b8152602060048201526011602482015270496e76616c69642045544820707269636560781b6044820152606490fd5b905060a0813d60a0116102ac575b8161028260a093836101a2565b8101031261008957610293816101d8565b506102a56080602083015192016101d8565b505f610222565b3d9150610275565b6040513d5f823e3d90fdfea2646970667358221220d0a4538eebb39485fe59dc82fec92587ff121dce4a7352a71611e0c76a8b3e4d64736f6c63430008180033","linkReferences":{}},"methodIdentifiers":{"ethUsdFeed()":"8009b7bd","getEthUsdPrice()":"a0a8045e","getEthValueInUsd(uint256)":"1b05fb92","getPriceDecimals()":"1b30aafc","getTokenUsdPrice()":"5be436d9","getTokenValueInUsd(uint256)":"4a71bc23"},"storageLayout":{"storage":[{"astId":52188,"contract":"src/oracle/PriceOracle.sol:PriceOracle","label":"ethUsdFeed","offset":0,"slot":"0","type":"t_contract(AggregatorV3Interface)45"}],"types":{"t_contract(AggregatorV3Interface)45":{"encoding":"inplace","label":"contract AggregatorV3Interface","numberOfBytes":"20"}}},"id":72}